:020000040800F2
:1020000038B5002045210008C5F90008B9B100081D
:102010008DF00008E93300080542010800000000C7
:10202000000000000000000000000000BD170108D3
:102030000D400008000000006F31000825FE000878
:102040005F2100085D0001085F21000811090108F7
:102050005F2100085F2100085F2100085F21000860
:102060005F2100085F2100085F2100085F21000850
:102070005F210008653B00085F2100085F21000820
:102080005F2100085F2100085F2100085F21000830
:10209000614001085F2100085F2100085F210008FE
:1020A0005F2100085F2100085F2100085F21000810
:1020B000D132010875330108853601085F21000817
:1020C0005F2100085F2100085F2100085F210008F0
:1020D0005F210008D53B0108213C01085F21000871
:1020E0005F2100085F2100085F2100085F210008D0
:1020F0005F2100085F2100085F2100085F210008C0
:102100005F2100085F2100085F2100085F210008AF
:10211000C13A0108493B01085F2100085F2100081E
:102120005F2100085F2100085F2100085F2100088F
:10213000DFF80CD000F08AFD004800472164010858
:1021400038B500200648804706480047FEE7FEE70E
:10215000FEE7FEE7FEE7FEE7FEE7FEE7FEE7FEE757
:10216000A53101083121000872B6704762B6704788
:10217000EFF3108072B6704780F31088704730BF5D
:10218000704720BF7047B0FA80F0704790FAA0F017
:10219000B0FA80F0704790FAA0F070470649074AFD
:1021A0000868504343F23902104408604008704701
:1021B0000149086070470000280400206D4EC641A8
:1021C00040EA01039B0703D009E008C9121F08C0B9
:1021D000042AFAD203E011F8013B00F8013B521E39
:1021E000F9D27047D2B201E000F8012B491EFBD2B0
:1021F00070470022F6E710B513460A460446194612
:10220000FFF7F0FF204610BD30B505462A460B46C5
:1022100012F8010B13F8014B08B1A042F8D01CB121
:10222000002802D06D1CF1E7284630BD421C10F892
:10223000011B0029FBD1801A704710B5002200E075
:10224000521C835C8C5CA34201D1002BF8D1D8B224
:10225000E1B2401A10BD30B504460020034600E04C
:102260005B1C934203D2E05CCD5C401BF8D030BDD8
:10227000034611F8012B00F8012B002AF9D118466A
:102280007047000070B50F4D00B92868002412E0B7
:102290000A4602E09E4203D0521C1378002BF9D16B
:1022A000DAB2224305D02BB124B1002100F8011B82
:1022B00004E00446401C0678002EE9D12860204640
:1022C00070BD00002C04002010B50346002004E07F
:1022D000401C491C03F8014B521E012A02D90C78FC
:1022E000002CF5D122B100221A7001E0401C491CDB
:1022F0000A78002AFAD110BD70B5064613F04EF8E0
:10230000046805460A220021304600F0BBFB2C6021
:1023100070BDF0B480EA0102D40F4200B2EB410F6D
:1023200002D20246084611464A0042D0C30DDDB231
:10233000C1F3C752AD1A202D35DAC1F3160141F4AD
:10234000000204B15242C5F1200602FA06F12A4108
:102350001044B3EBD05F23D0C4B1012DA0EBC35028
:1023600009DCF0BC4FF0004202EAC352DBB200F5D8
:10237000000000F0C8BB400000F1807000EBC350CB
:10238000A0F1807040EAD170490009E0490841EAB3
:10239000C071A0EBC35000F50000400800EBC35033
:1023A000F0BC00F0A7BB6142012202EB4101001B1F
:1023B000F6E7F0BC704781F00041AAE780F00040EA
:1023C000A7E780EA010210B502F00043400022D0E6
:1023D0004A001FD0010E01EB1261C0F35600C2F398
:1023E000560240F4000042F40002A0FB0220000468
:1023F0007F39140400D0401C50EA124001D4400040
:10240000491EC2B20C0604EBD010401C4008802AC2
:1024100002D003E0002010BD20F00100002900DA06
:102420000020184310BD30B480EA010202F00045DC
:1024300030F0004221F0004013D090B1C30DD40D14
:10244000C2F31601C0F31600E41A41F4000140F48F
:1024500000027D34914201D3641C00E04900002C4D
:1024600002DA30BC002070474FF400000023914294
:1024700001D3891A034340084FEA4101F7D151B112
:10248000914202D14FF0004105E002D24FF001012C
:1024900001E06FF0010103EBC450284430BC00F0B0
:1024A00029BB2DE9FE4F804681EA0300C00F0C4690
:1024B000009021F0004123F00045B8EB0200A94153
:1024C00005D24046214690461C460B46024623F064
:1024D0000040104347D0270DC7F30A00C3F30A5149
:1024E0000290401A019040286BDAC3F3130040F4C5
:1024F000801B0098924620B10023D2EB030A63EBC5
:102500000B0B01985946C0F14002504600F04BFABF
:1025100006460D4650465946019A00F053FA10EB14
:1025200008006141002487EA115284EAE7731A43E4
:1025300040D0009A62B3019A012A4FEA075215DC93
:10254000001B61EB02014FF0004202EA0752CDE9A5
:102550000042001C41F5801132462B4600F010FB72
:1025600003B0BDE8F08F40462146F9E7001B61EB60
:102570000201001C41F5801300185B412018A2F5F0
:10258000001747EB030140EAD570B6196D4111E021
:102590006D084FEA360645EAC0754FEA0752001B40
:1025A00061EB0201001C41F5801149084FEA30003F
:1025B0000019514132462B4603B0BDE8F04F00F000
:1025C000D0BA0098012240000023D0EB020263EB56
:1025D000E073009821464FEAE074B8EB000061EB2D
:1025E0000401E9E783F000435BE781F0004158E72D
:1025F0002DE9FE4F81EA030404F0004421F000417C
:1026000000944FF0000B23F0004350EA01045ED029
:1026100052EA03045BD0C3F30A54C1F30A552C44B5
:10262000A4F2F3340194A0FB0254C1F3130141F46A
:102630008011C3F3130343F4801301FB024400FB36
:10264000034E840A970A44EA815447EA8357A4FB5D
:10265000076802958D0A05FB07854FEA932C04FB5A
:102660000C542705029D4FEA065847EA1637B5EB8A
:1026700008056EEB070C870E920E47EA811742EAB7
:102680008312A7FB0201B6EB0B0164EB00042B0DD8
:1026900043EA0C335E1844EB1C50DA465146E7FB24
:1026A0000201C5F313044FEA0B3343EA14534FEA14
:1026B0000432019C43EA0603A4F10C040294009C3A
:1026C000CDE900B400F05CFA03B0BDE8F08F002063
:1026D0000146F9E72DE9F04D81EA030404F0004BCF
:1026E00021F0004514464FF0000A23F0004150EA63
:1026F000050220D054EA01021DD0C5F30A57024654
:10270000C5F31303C1F31300C1F30A5640F4801557
:1027100043F48013A7EB0608101BD64608F2FD38D9
:1027200073EB050002D308F1010801E092185B4148
:10273000B8F1000F03DA00200146BDE8F08D00205B
:102740004FF48011064684460EE0171B73EB050715
:1027500005D3121B63EB050306434CEA010C490841
:102760004FEA300092185B4150EA0107EDD152EA7E
:10277000030012D082EA040083EA0501084305D071
:10278000101BAB4106D20122002306E000224FF0CD
:10279000004302E06FF0010253101AEB06004CEB0D
:1027A000085110EB0A0041EB0B01BDE8F04D00F0C1
:1027B000D8B9C10F80EAE0700844CA079623002107
:1027C00000F0A1B996230022114600F09CB90EB585
:1027D000C10F80EAE0700844CA07002140F2334389
:1027E0008DE80E000A460B4600F0CAF903B000BDA2
:1027F0000EB540F2334102910021CDE900110A46A5
:102800000B4600F0BDF903B000BD20F00040C10D43
:10281000C0F3160040F400007F2901DA0020704761
:10282000962903DCC1F19601C8407047963988406B
:10283000704700F0004230F000400AD0C10D01F5B1
:102840006071C0F3160042EA0151C208400711430B
:10285000704700200146704730B5041E71F1000436
:1028600004DB4FF00044404264EB0101141E73F19D
:10287000000405DB1C464FF00043524263EB0403A7
:102880008B4208BF824230BD30B5041E71F1000496
:1028900004DB4FF00044404264EB0101141E73F16D
:1028A000000405DB1C464FF00043524263EB040377
:1028B000994208BF904230BD01F0004330B421F08E
:1028C000004150EA010206D00A0DA2F56072C1F380
:1028D0001301002A02DC30BC00207047440F44EA98
:1028E000C104C100E01830BC00EBC25000F002B9D6
:1028F000002801DBC0F10040002901DBC1F10041EB
:1029000081427047002801DBC0F10040002901DB53
:10291000C1F100418842704730B50B4601460020A6
:102920002022012409E021FA02F59D4205D303FA91
:1029300002F5491B04FA02F52844151EA2F1010212
:10294000F1DC30BD2DE9F05F0546002092469B4644
:1029500088460646814640241BE0284641464746B5
:10296000224600F085F953465A46C01A914110D3C9
:1029700011461846224600F016F82D1A67EB01089A
:102980004F4622460120002100F00DF817EB000908
:102990004E41201EA4F10104DFDC484631462A46A0
:1029A0004346BDE8F09F202A04DB203A00FA02F1FA
:1029B000002070479140C2F1200320FA03F319432D
:1029C00090407047202A06DBCB17203A41FA02F0EC
:1029D00043EAE07306E041FA02F3D040C2F120027C
:1029E00091400843194670470FB4002300B589B0E1
:1029F0000CA900910B996FF00042CB601E4B06931F
:102A00001E4B07930423CDE901321D4A089202466A
:102A10006B46002000F0CAF909B05DF814FB70B5F0
:102A200086B006464FF0FF300091CDE9010100204D
:102A300015460C4604903246694604A8FFF7D4FFB9
:102A400002460498211825B108B1084600E0204646
:102A50002860049800280DD0002A02DD00988842E2
:102A600008D0081B0094CDE901043246694604A849
:102A7000FFF7BAFF06B070BDE52F0008033000086D
:102A8000992C00082DE9F04791460F4680460446F0
:102A9000002614F8015B2DB100F0FAF80068405DE3
:102AA000C007F6D12B2D02D02D2D18D0641E4A461A
:102AB0003946204600F0B6FA27B13968A14201D163
:102AC000C7F8008071054FF002040BD54042002882
:102AD00003DD12F063FC0460A007BDE8F08746F454
:102AE0008066E4E70028F8DA12F058FC04606FF022
:102AF0000040F2E70029A8BF7047401C490008BF0A
:102B000020F00100704710B4B0FA80FC00FA0CF01D
:102B100050EA010404BF10BC704749B1CCF1200455
:102B200021FA04F411FA0CF118BF012121430843E2
:102B3000A3EB0C01CB1D4FEA00614FEA102042BF0E
:102B4000002010BC704700EBC35010440029A4BF04
:102B500010BC7047401C490008BF20F0010010BCA9
:102B6000704710B5141E73F1000408DA401C41F1DF
:102B7000000192185B411A4301D120F0010010BD01
:102B80002DE9F04D92469B4611B1B1FA81F202E077
:102B9000B0FA80F220329046FFF705FF04460F4658
:102BA00040EA0A0041EA0B0153465A46084313D053
:102BB000114653EA010019D0C8F14002504600F016
:102BC00057F805460E46504659464246FFF7EBFE7B
:102BD000084305D0012004E020463946BDE8F08DC9
:102BE0000020054346EAE0762C4337430A98630504
:102BF000E40AA0EB08000022FD0A44EA47540A3028
:102C000002D500200146E9E7010510196941DDE917
:102C1000084500196941BDE8F04DA2E7C1F30A5229
:102C2000C1F3130140F2FF3341F480119A4202DAFA
:102C300000200146704740F233439A42A2F23342E9
:102C400002DC524200F014B8FFF7ADBE064C074D4F
:102C500006E0E06840F0010394E80700984710346C
:102C6000AC42F6D3FFF768FAC46E0108E46E0108BF
:102C7000202A04DB203A21FA02F00021704721FAD1
:102C800002F3D040C2F12002914008431946704738
:102C900000487047DC6A010810B50446FFF7F8FFEA
:102CA0000068005D00F0010010BD00002DE9FF4F3D
:102CB000087881B09946FF2805D0491C2D2804D0FA
:102CC0000024002308E000230BE00124F9E703EBD4
:102CD000830300EB4303491C0878FF28F7D104B1B4
:102CE0005B4200200090147801462D2C01D02B2C43
:102CF00004D1521C2D2C12D00024009400251678EB
:102D0000FF2E0ED00A24A0FB04C801FB048100277B
:102D100000FB0711521C16EB0C006941EFE7012480
:102D2000EBE7994450EA01020ED00024AA4D264652
:102D3000DFF8A88200F0D3F982468B46B9F1000093
:102D400009DAC9F100071BE001980021C0E9001170
:102D500005B0BDE8F08F074612E0F80707D022461D
:102D60002B4630464146FFF743FC0646884622463E
:102D70002B4610461946FFF73BFC04460D467F10D4
:102D8000002FEAD1B9F1000F32464346504659466A
:102D900002DAFFF79FFC01E0FFF72AFC009A0AB174
:102DA00081F00041019AC2E90001D1E72DE9FF4F0E
:102DB0001F468DB0D7E901464FF0FF382E2045461B
:102DC0004FF000090B90B9696D1C0E988847396A5D
:102DD000824688470028F6D1BAF1FF3F0AD024F492
:102DE000D064002E11DDBAF12B0F08D0BAF12D0FEF
:102DF0000BD102E0404611B0ABE744F48064B969FE
:102E00006D1C0E9888478246761E6946600501D57E
:102E10002D2000E02B208DF8000001F1010B0DF1B9
:102E2000200809E0B9696D1C0E98884782460F9802
:102E300044F40074761E0560002E02DDBAF1300FF6
:102E4000F0D00B998A453ED144F0800406E00F99FA
:102E5000681CA9F1010944F400740860B9696D1C8B
:102E6000761E0E98884782463028F0D02BE00B99CA
:102E70008A4505D1200603D444F08004761E18E06C
:102E8000504612F06DFB08B30DF11301761E44F4A9
:102E900000748B4508D2AAF130000BF8010B200614
:102EA00007D5A9F1010003E0200602D409F10100D1
:102EB0008146A00502D50F99681C0860B9696D1C90
:102EC0000E9888478246002ED1DC53E0002E51DD5B
:102ED000BAF1650F02D0BAF1450F4BD1A00549D523
:102EE000B9696D1C24F44074761E0E98884782469A
:102EF000002E0CDD2B2804D0BAF12D0F07D144F49D
:102F00008074B9696D1C0E9888478246761EE0056C
:102F100001D52D2100E02B2108F8011BCDF82C80D4
:102F200021E00DF12901761E44F4007488450CD28D
:102F3000AAF1300010F0FF0088F8000002D10B99D0
:102F4000884509D908F1010806E0E00501D52448C3
:102F500001E042F20F708146B9696D1C0E988847F6
:102F600082460F980560002E04DD504612F0F8FAF4
:102F70000028D6D1F9690E988847FF208BF8000009
:102F800088F800000020069007904B466A4608A982
:102F900006A8FFF78BFEA00502D46FF001002AE718
:102FA00014F0240F0AD0E00714D1DDE906123868C6
:102FB000031D3B600068C0E900120BE0DDE906017B
:102FC000FFF77AFC0146E00704D13868021D3A6039
:102FD0000068016028460EE7000024400000F03F32
:102FE000F1D8FFFF426842B1016811F8013B23B1FB
:102FF000521EC0E90012184670470121C160881EA8
:10300000704742685AB1C368016843B983688B420C
:1030100005D0491E521CC0E90012002070474FF035
:10302000FF3070472DE9F05F824600780027154693
:103030008B460AF10104B946302801D09DB113E056
:1030400014F8010B0127782803D0582801D045B186
:103050000AE00DB1102D07D10027102514F8010B3F
:1030600002E0082500E00A250026B0460EE005FB38
:10307000080005FB06F1012701EB10461FFA80F856
:10308000B6F5803F00D3B94614F8010B294600F08D
:1030900018F80028EBDABBF1000F05D00FB1641E61
:1030A00000E05446CBF80040B9F1000F06D012F012
:1030B00075F902210160C81EBDE8F09F48EA06408C
:1030C000FAE73A2800D2303820F02002412A01D312
:1030D000A2F13700884201D34FF0FF3070470EB5A0
:1030E00040F2334202920022CDE900221346FFF75C
:1030F00047FD03B000BD70B58C1810F8015B15F0EA
:10310000070301D110F8013B2A1106D110F8012B59
:1031100003E010F8016B01F8016B5B1EF9D12B077E
:1031200005D40023521E0DD401F8013BFAE710F834
:10313000013BCB1A921C03E013F8015B01F8015B21
:10314000521EF9D5A142D8D3002070BD18484FF0C7
:10315000FF010170002080F309881648016881F39F
:10316000088815484FF08051016062B6FEE772B6DC
:10317000EFF3098028B1203880E8F00F0F49096883
:10318000086000B50E4880475DF804EB0D480E4915
:103190000A78027009480D490A680260106890E8D0
:1031A000F00F203080F309884EF0040E62B67047AD
:1031B00022ED00E06802002004ED00E0040300209E
:1031C00089FD0008A2020020A302002008030020BD
:1031D0000FB430B595B005462C4628210BA8FFF753
:1031E00008F8282101A8FFF704F87B2004F8010B58
:1031F000282101A8FEF7FDFF0E2219A901A8FEF75C
:10320000DFFF01AA19A10BA812F0B4F80BAA1BA1A9
:10321000204612F0AFF80BA8FFF708F804449DF819
:10322000722017A10BA812F0A5F80BAA13A1204633
:1032300012F0A0F80BA8FEF7F9FF04449DF87320E4
:1032400013A10BA812F096F80BAA0CA1204612F0BD
:1032500091F80BA8FEF7EAFF04447D2004F8010B67
:10326000601B80B215B030BC5DF814FB2274696D30
:1032700065223A222573222C0000000025730000ED
:1032800022636F6465223A222564222C000000002C
:10329000227370656564223A2225642200000000D2
:1032A00010B50C48A0F51B72801A011D1046FEF7E0
:1032B000A0FF4FF0FF300849486601460648C0F8B5
:1032C000CC10C0F83411C0F89C11C0F80412C0F83A
:1032D0006C1210BD3C220020D01F002070B586B0BB
:1032E00004460D4618216846FEF783FF002604B108
:1032F00015B9002006B070BD2A4621466846FEF783
:103300005FFF6846FEF7F8FFC6B23046F2E72DE9E8
:10331000FF4104460D46002000900190029003906A
:10332000804604B11DB9002004B0BDE8F0812A46F2
:1033300021466846FEF744FF684612F0B5FC064693
:10334000FFF7BAFA80464046EEE7FEB504460D4662
:103350000020009001900290002604B10DB90020D9
:10336000FEBD2A4621466846FEF72AFF6846FEF75C
:10337000C3FF86B23046F3E710B501200DF04CF8DC
:1033800000200DF049F810BD01460020044A1088C5
:103390004FF67F4210400843014A108070470000FA
:1033A0002C6C004008B501460020009003480090B6
:1033B0000098084400900098008808BD006C004008
:1033C000014908607047000000860D4208B50022E0
:1033D0000092044A0092009A02440092009A1160FE
:1033E00008BD0000006C004000BFFEE70EB5B2480B
:1033F0000078012822D1B04840781E2807D0AE4876
:103400004078282803D0AC484078322816D1AA4802
:103410008078002812D1A948007802280ED1A84847
:10342000007801280AD1A7A1302011F015FEB1487B
:10343000007A012802D1A3A102F0CCFBAE480078AB
:1034400006287CD2DFE800F0032C3A86C8F8AB48A7
:103450000078012823D19948007802281FD1984884
:10346000007801281BD194480078022817DB924885
:103470000078052813DC9F48007A012802D1A0A11A
:1034800002F0A8FB9EA1302011F0E6FDAC480068D8
:10349000AC49086098480078401C9749087008E1DA
:1034A000A7480068A7490968401AB0F5966F04D389
:1034B00091480078401C90490870FAE07E480078F6
:1034C000052806DC7E48007818B17C480078022880
:1034D00003D0002088490870EBE079480078012883
:1034E00037D199A1302011F0B7FD8248007A012828
:1034F00002D195A102F06EFB08209D4981F84D0094
:103500006D4800788DF800006B4840788DF8010018
:10351000694880788DF8020067488088ADF804001B
:10352000654880798DF806006348C0798DF80700FA
:103530006148007A8DF8080001F10E0300E0B4E064
:103540009DE8070010F094FA6B480078401C6A4927
:103550000870AEE05948007848B967480078401CC8
:10356000654908707648006876490860A1E05248CD
:103570000078052802DD5248007818B108F094FC64
:10358000022828D14C4800788DF800004A4840783D
:103590008DF80100484880788DF802004648808800
:1035A000ADF80400444880798DF806004248C0799F
:1035B0008DF807004048007A8DF808006C4B1C33EA
:1035C0009DE8070010F054FA69480BF0D9F9002083
:1035D000494908706DE06CE03748007805282DDD1A
:1035E0003748007848BB344800788DF800003248EE
:1035F00040788DF80100304880788DF802002E4820
:103600008088ADF804002C4880798DF806002A489F
:10361000C0798DF807002848007A8DF80800544BCF
:103620001C339DE8070010F023FA51480BF0A8F96D
:103630000020314908703CE00EE0FFE74048006898
:1036400040490968401AB0F5E16F04D32A48007870
:10365000401C2949087000BF174800788DF8000009
:10366000154840788DF80100134880788DF80200E5
:1036700011488088ADF804000F4880798DF8060065
:103680000D48C0798DF807000B48007A8DF80800C6
:10369000374B1C339DE8070010F0EAF934480BF073
:1036A0006FF900201449087003E0002012490870E7
:1036B00000BF00BF0EBD0000B02C0020380100206C
:1036C00081000020C7EBC4FAC1E8B3BF32B5E3D62E
:1036D000C135B5E3CDA3D4CBBBF2B8FCBBBBBCDDDD
:1036E000CABBD4B12CB7F1D4F2BCC7C2BCCEA5D5ED
:1036F000C200000090240020800000203A0000203A
:10370000C4FAD4DAD2B9BCE4BDF8C8EBC8FDBCB683
:10371000D2D4CFC2B9ABC2B72CC7EBBEA1BFECCDE0
:10372000A3B3B5BBF2D5DFC0EBBFAAB4CBC7F8D308
:10373000F22CB7F1D4F2BCC7C2BCCEA5D5C20000F2
:103740003C0100207C000020C4FAD2F2CEA5B7B420
:10375000B4F3BFCDB3B5D2B9BCE4D0D0CABBB9E6DF
:10376000B6A82CD2D1B1BBBCC7C2BCCEA5D5C200B5
:103770002C1C002030B5014600200A2291FBF2F3F8
:1037800002FB13120A2391FBF3F30A2493FBF4F5D3
:1037900004FB153342EA0312D0B230BD0146CAB26F
:1037A0000B1243EA022070474FF0E0208069704717
:1037B00010B5002473E147F6FF70BF490860BF48A9
:1037C000008800F00F00BE49087008460078002805
:1037D0007ED1B9484438006800F44050B9490880A7
:1037E000B5484438006800F03000B7490880B24955
:1037F000443909684BF68F7201EA020080F40050E8
:10380000AD4944390860096848F6BF7201EA020010
:1038100080F02000A84944390860A848008800F0DA
:103820001000002838D10846006848F60F7108409B
:10383000A1494439086008F031FA9F4944390968C0
:103840004BF68F7201EA02009E49098801F480510B
:1038500009B180F480509B49098801F4005109B1F5
:1038600080F40050944944390860096848F6BF72F2
:1038700001EA02009449097801F0100109B180F0D1
:1038800010009149097801F0200109B180F0200071
:1038900089494439086010BD87484438006884B2BB
:1038A00004F08000D8B384484438006848F60F71AB
:1038B000084081494439086008F0F0F97E494439EC
:1038C00009684BF68F7201EA02007E49098800E020
:1038D000A6E001F4805109B180F48050794909884B
:1038E00001F4005109B180F4005073494439086073
:1038F000096848F6BF7201EA02007349097801F0CD
:10390000100109B180F010006F49097801F0200121
:1039100009B180F02000684944390860BBE7FFE73F
:1039200004F40060D8B3644844380068C0F30E0063
:1039300048F68F7108406049443908600EF02AFA51
:103940005D49443909684BF68F7201EA02005D490E
:10395000098801F4805109B180F4805059490988DF
:1039600001F4005109B180F4005053494439086012
:10397000096848F6BF7201EA02005349097801F06C
:10398000100109B180F010004F49097801F02001C1
:1039900009B180F020004849443908607BE7FFE71F
:1039A00004F4004000287AD0434844380068C0F34B
:1039B0000E0048F68F7108403F49443908600CF00A
:1039C000F1FA3D49443909684BF68F7201EA020069
:1039D0003C49098801F4805109B180F4805039498B
:1039E000098801F4005109B180F40050324944398A
:1039F0000860096848F6BF7201EA02003249097896
:103A000001F0100109B180F010002F49097801F090
:103A1000200109B180F020002749443908603AE7C5
:103A200027480078294901EB8000D0F8000C84B2C7
:103A300004F40040C0B12248007801EB8000D0F8C7
:103A4000000CC0F30E0048F68F7108401C4909783D
:103A50001E4A02EB8101C1F8000C19490978491E80
:103A60001B4A52F82100804704F08000B8B1144886
:103A70000078164901EB8000D0F8000C48F60F7171
:103A800008400F490978114A02EB8101C1F8000C86
:103A90000B490978491E0F4A52F821008047064811
:103AA000006880B20549088000F4004000287FF4D7
:103AB00082AE00BFEFE60000445C00404C030020F3
:103AC00010030020240300202603002000500040A3
:103AD0006C030020500300200B4A02EB8001D1F858
:103AE000001C01F4804169B102EB8001D1F8001C97
:103AF00048F68F72114041F48041034B03EB800282
:103B0000C2F8001C70470000005000400B4A02EB56
:103B10008001D1F8001C01F0400169B102EB800185
:103B2000D1F8001C48F68F72114041F04001034B60
:103B300003EB8002C2F8001C7047000000500040F8
:103B4000064A02EB8001D1F8001C48F68F62114052
:103B5000024B03EB8002C2F8001C7047005000408B
:103B60007047000010B54FF4007000F02FF80128E6
:103B70000FD10021074800F01DF8402005493039D9
:103B800048630121034800F015F84FF4007000F07D
:103B900003F810BD3000024000F0805111B103491C
:103BA000086001E0024948607047000004040240D8
:103BB0000000024021B1026842F00102026004E00C
:103BC00002684FF6FE731A400260704701460020FB
:103BD000002201F0805313B1054B1A6801E0054B38
:103BE0001A6802EA01030BB1012000E000207047CF
:103BF00000040240000002402DE9F0472848006818
:103C000000F110052E8826480068077AD6B9042FDF
:103C100018D12448007801280FD1002122480068DB
:103C200080B2801C214A42F81010302020490880C0
:103C300000BF00201B49087003E0072710201C4923
:103C4000088027E0AC88A64201D8042000E00220CA
:103C50000746B44200D93446A0B2A96888478046D6
:103C6000002004F0ADFC8146A2B24946404610F067
:103C7000F9FAA1B200200DF0B9FF2888001B2880B6
:103C8000688820446880302009490880000209497A
:103C9000088000BF024909680F72BDE8F087000084
:103CA000140300200E030020505C00400060004020
:103CB00026030020240300202DE9F0412848006855
:103CC00000F110042688A068C0B1BEB1A588B54235
:103CD00000D93546A8B2A168884707462088401B0E
:103CE0002080608828446080002004F047FC8046E3
:103CF000AAB2414638460CF07DF900BF208850B189
:103D00004FF4405017490880002108460DF06EFF1F
:103D10003020154908802088A188884204DB0320D0
:103D20000F490968087218E02088002804DD052082
:103D30000B490968087210E0208870B9062008490C
:103D40000968087200210948006880B2801C084A8E
:103D500042F81010302004490880BDE8F0810000CE
:103D6000140300202403002026030020505C0040A0
:103D7000006000402DE9F84F9B4800684578002717
:103D8000BA46062D1BD198480068007800F07F00E5
:103D9000002813D1944909688878012803D19349F0
:103DA0000968CF690AE0022803D1904909680F6ABF
:103DB00004E0032802D18D4909684F6A94E0002D80
:103DC00064D189480068408800285FD1864800682F
:103DD000C08802285AD1844800680079002855D14B
:103DE00081480068007800F07F0028B97E480068AC
:103DF000808808B97E4F77E07B480068007800F043
:103E00007F00012810D17849096848797749096805
:103E10008A6900219047002866D173480068807A3B
:103E2000002861D0724F5FE06F480068007800F0B2
:103E30007F00022858D16C480068407900F00F06D6
:103E400069480068407900F0700967480068407967
:103E500000F0800038B1674901EB8600D0F8000C13
:103E600000F0300806E0634901EB8600D0F8000C52
:103E700000F4405860480078B04235D9B9F1000FDD
:103E800032D1B8F1000F2FD0594F2DE0082D07D1B6
:103E900055480068007800F07F0028BB574F23E0AA
:103EA0000A2D21D150480068007800F07F000128D9
:103EB0001AD14D480068807AB0B14B4800684088FC
:103EC00090B949480068007970B947480068C088CF
:103ED000012809D1444909684879444909688A692F
:103EE0000021904700B9464F57B13F480068A0F8FD
:103EF00012A03D48006887610020B84700240FE009
:103F0000394A12685078394A12681169884704465C
:103F1000032C05D10920344909680872BDE8F88FDF
:103F200031480068008A4FF6FF71884204D10920A9
:103F30002D4909680872F1E7022C03D02A4800686D
:103F4000008A20B90820284909680872E6E726484F
:103F50000068007800F08000E0B323480068C08863
:103F6000009021480068008A0099884204D91E49BF
:103F700000980968088223E01B480068008A1A49F3
:103F80000968C98888421BDA17480068008A1749FF
:103F9000096891F82C10884203DA0020194908704A
:103FA0000EE011480068008A1049096891F82C1049
:103FB00090FBF1F201FB120010B9012011490870C9
:103FC0000A48006890F82C10074800688182FFF7C3
:103FD00013FE07E0FFE703200349096808720003A6
:103FE0000949088000BF99E7140300201803002046
:103FF000592D01080050004098030020DD2C0108D5
:104000002D2D01080E03002024030020704700001E
:1040100003B5DFB000205E905D90C8212BA8FEF7AD
:10402000E8F800202A9029905F982890609800284E
:1040300001DC61B000BD0DF19D0014A9401A401CC7
:104040001290F1A12898FEF7DFF870B11D20092128
:1040500040F2E172EF4BCDE900210290EE4AEFA170
:10406000012001F0B7FD01F073BDF7A12898FEF71C
:10407000CBF810B3F4A12898FEF7C6F82A902A9836
:104080000A302A902A980078312802D0532813D178
:1040900002E00FF0B1F80FE02A98407849280AD1E1
:1040A0002A9880784D2806D1EAA1012001F092FDDE
:1040B0000120ED49087000BFD5E7ECA12898FEF774
:1040C000A3F8002875D0E9A12898FEF79DF82A905A
:1040D0002A9808302A902A9800783F2802D043284E
:1040E0002AD10CE0E44901F5047103C902460B46EC
:1040F000CDE91001E1A1012001F06CFD99E72A98BA
:1041000040784C2817D12A988078452813D12A98CE
:10411000C07841280FD12A98007952280BD1DBA111
:10412000012001F057FD0020D34AC2F81002C2F866
:1041300014020AF017FA3AE02A980078302829DBAE
:104140002A980078392825DCC8212BA8FEF751F8D9
:104150002BA829901CE02A98007830280EDB2A989A
:10416000007839280ADC2A980178299801702A9861
:10417000401C2A902998401C299009E02BA811F096
:1041800093FDBD4A02F5047203C20AF0EBF900E0A8
:10419000E1E700BFB84901F5047103C902460B46C7
:1041A000CDE91001BEA1012001F014FD00BF5AE7C6
:1041B000FFE7BFA12898FEF727F800284ED0BCA142
:1041C0002898FEF721F82A902A980A302A902A98EF
:1041D00000783F2809D1A84890F828010246B7A1E5
:1041E0001190012001F0F6FC3DE7B8A1012001F09B
:1041F000F1FCC8212BA8FDF7FCFF00205E9016E023
:104200002A9800780D2806D02A9800780A2802D02B
:104210002A98007800B90DE02A9801782BAA5E98B8
:1042200011542A98401C2A905E98401C5E905E981B
:104230000328E5D300BF2BA8FEF75EF88E4981F86E
:104240002801084690F82801119010F0A1FEA3A1C2
:10425000302010F001FF0AF085F904E7A3A12898A7
:10426000FDF7D2FF002878D0A0A12898FDF7CCFF59
:104270002A902A98C01D2A902A9800783F2839D180
:104280007D4890F8060110BB7B48D0F808017A49B8
:1042900091F80F11784A92F80E21774B93F80D316F
:1042A000CDE90032CDE90210734890F80C0111906D
:1042B000714890F8060108B98EA000E08FA0109018
:1042C000024691A10120119B01F084FCCBE66A48D3
:1042D000D0F808010090684890F8060108B985A058
:1042E00000E086A0934B024693A11190012001F0BB
:1042F00071FCB8E699A1012001F06CFC9AA12A9802
:10430000FDF7C0FF299048E098A12998FDF77CFFB0
:10431000A8B1C8212BA8FDF76CFF2998FDF786FFEF
:10432000401F024611902999491D2BA8FDF748FF0F
:104330002BA8FDF7E1FF504981F8060128E08DA187
:104340002998FDF761FF48B12998C01D29901822CE
:1043500078482999FDF7B8FF1AE015E187A1299857
:10436000FDF752FFA0B1C8212BA8FDF742FF299805
:10437000FDF75CFF401F024611902999491D2BA8AB
:10438000FDF71EFF2BA8FDF7B7FF3B49C1F8080159
:1043900075A10020FDF776FF299029980028B3D158
:1043A000354890F8060158BB00205E9075A1614821
:1043B000FDF768FF299015E0C8212BA8FDF719FF2C
:1043C0002BA82999FDF754FF2BA8FDF795FFC2B242
:1043D0005E98411C5E9157490A546AA10020FDF77E
:1043E00051FF299029980028E6D15E98C0F1190064
:1043F000119050485E99084410901199FDF7F9FE0C
:104400000AF0B0F82FE6000041542B5645523D3FCC
:10441000000000007C6701088667010841542B56A4
:1044200045523DD3B2BCFE5625732CB9CCBCFE25FB
:10443000732CC8D5C6DA253034642D253032642D6E
:10444000253032640000000041542B5245424F4F4A
:10445000543D000041542B5245424F4F543D534967
:104460004D204F4B000000004401002041542B44DC
:104470004953543D000000004022002041542B4489
:104480004953543D252E35660000000041542B440D
:104490004953543D434C454152204F4B00000000CE
:1044A00041542B444953543D252E3566204F4B0033
:1044B00041542B545453564F4C3D000041542B54FF
:1044C0005453564F4C3D25640000000041542B547A
:1044D0005453564F4C3D4F4B00000000D7A3C4FA35
:1044E000D2BBC2B7C6BDB0B20000000041542B4ED3
:1044F00045543D00303A495000000000313A446FC5
:104500006D61696E0000000041646472205479702E
:10451000653D25730D0A5365727665723D25642EDF
:1045200025642E25642E25640D0A506F72743D2576
:10453000640000004C2300204164647220547970B0
:10454000653D25730D0A5365727665723D25730DC1
:104550000A506F72743D25640000000041542B4ED8
:1045600045543D4F4B0000003B00000054797065FE
:104570003A0000005365727665723A00506F7274AB
:104580003A0000002E000000FCA12898FDF73CFE38
:1045900070B3FAA12898FDF737FE2A902A980B30BD
:1045A0002A902A980078302810D0312812D03F283D
:1045B00014D1F548007A08B1012000E0002002463D
:1045C000F2A11190012001F005FB32E50020EE4937
:1045D000087203E00120EC49087200BF00BF2A986E
:1045E00000780246EDA11190012001F0F3FA3AE5BE
:1045F000EFA12898FDF708FED0B3EDA12898FDF7AC
:1046000003FE2A902A9809302A902A9800783F2899
:1046100005D1EA4AEAA1012001F0DCFA23E5EBA189
:10462000012001F0D7FA1321E448FDF7E2FD002054
:104630005E9016E02A9800780D2806D02A98007817
:104640000A2802D02A98007800B90DE02A9802784A
:10465000DA485E9942542A98401C2A905E98401C81
:104660005E905E981228E5D300BF09F07BFFFAE464
:10467000FFE7D9A15F98FDF7C7FD68B3D6A12898D9
:10468000FDF7C2FD2A902A9808302A902A980078CF
:104690003F2817D1D3488078D2494A780978D14B3E
:1046A000DB79CDE90031CDE90220CE488079119047
:1046B000CC48808810900246CBA10120119B01F0CC
:1046C00089FAD0E4D2A1012001F084FA5F9908317F
:1046D000C4480FF075F9C6E4D0A12898FDF794FD01
:1046E00000287DD0CDA12898FDF78EFD2A902A982C
:1046F00009302A902A9800784D2872D004DC452889
:1047000007D049282FD12FE052286BD05328F9D158
:1047100016E22A984078522825D12A988078412894
:1047200021D12A98C07853281DD12A98007945288C
:1047300019D1BDA1012001F04DFAC0480AF04EFB8D
:10474000BF480AF04BFBBF480AF048FB4FF440104B
:104750000AF044FB00214FF440100AF08FFB0021C7
:10476000B9480AF08BFB61E22A98407844287DD151
:104770002BA82990B5A1299810F0FCFD2998FDF7E8
:1047800055FD2999084429900022B3A1299810F0D9
:10479000F1FD2998FDF74AFD299908442990012245
:1047A000B0A1299810F0E6FD2998FDF73FFD299961
:1047B000084429900222AFA1299810F0DBFD299826
:1047C000FDF734FD2999084429900322ADA12998C9
:1047D00010F0D0FD2998FDF729FD2999084402E041
:1047E00025E26BE0ADE029900422AAA1299810F0FF
:1047F000C1FD2998FDF71AFD299908442990052241
:10480000A8A1299810F0B6FD2998FDF70FFD299968
:10481000084429900622A8A1299810F0ABFD2998F8
:10482000FDF704FD2999084429900722A5A129989C
:1048300010F0A0FD2998FDF7F9FC2999084429906A
:104840000822A4A1299810F095FD2998FDF7EEFC07
:104850002999084429900922A4A1299810F08AFDD9
:104860002998FDF7E3FC2999084400E025E0299008
:104870000A22A2A1299810F07DFD2998FDF7D6FC07
:104880002999084429900B22A1A1299810F072FDC2
:104890002998FDF7CBFC2999084429900C22A0A166
:1048A000299810F067FD2998FDF7C0FC2999084464
:1048B00029902BA9012001F08DF9B7E12A984078C1
:1048C00041283DD12A9880784B2839D12A98C07840
:1048D000452835D12A98001D2A902A98007830283A
:1048E00024DB2A980078392820DCC8212BA8FDF782
:1048F00080FC2BA8299017E02A98007830280EDB3E
:104900002A98007839280ADC2A98017829980170B9
:104910002A98401C2A902998401C299004E02BA832
:10492000FDF7EAFC5E9000E0E6E700BF5E983C28F9
:1049300001D93C205E905E9880B211900AF03CFB59
:1049400074E12A984078452816D12A988078412821
:1049500012D12A98C07844280ED14FF440100AF0A2
:10496000BFFA7249086038480AF0BAFA704908601C
:10497000084603686D48DDE0E1E0000041542B4447
:1049800042474E4F4E453D009024002041542B4459
:1049900042474E4F4E453D256400000041542B4494
:1049A00042474E4F4E453D2563204F4B00000000CF
:1049B00041542B44545549443D000000322300200B
:1049C00041542B44545549443D25730041542B44D4
:1049D000545549443D4F4B0041542B54494D453D9E
:1049E00000000000B02C0020CFB5CDB3CAB1BCE4AC
:1049F0003A20253034642D253032642D2530326440
:104A000020253032643A253032643A253032640051
:104A100041542B54494D453D4F4B000041542B46CA
:104A20004C4153483D00000041542B464C415348F3
:104A30003D4552415345204F4B00000000103000CF
:104A4000002030000030300004003000CEA5D5C278
:104A5000B1E0BAC53A0D0A00CEB4D6AA3D25640D20
:104A60000A000000CEA5D5C2CDA3B3B53D25640D87
:104A70000A000000CEDED6A4BCDDCABB3D25640D15
:104A80000A000000C0C4D3C3D4B6B9E23D25640D0A
:104A90000A000000CEB4CFB5B0B2C8ABB4F83D2523
:104AA000640D0A00CEA5B9E6CAB9D3C3B0B2C8AB8B
:104AB000B4F83D25640D0A00B3ACCBD93D25640D97
:104AC0000A000000C6A3C0CDBCDDCABB3D25640DF5
:104AD0000A000000B4F3BFCDB3B5D2B9BCE4CEA593
:104AE000D5C2D4CBD0D03D25640D0A00CEA5B7B435
:104AF000CFDED0D03D25640D0A000000CEA5B9E67A
:104B0000CAB9D3C3C0AEB0C83D25640D0A000000C9
:104B1000BFAAB3B5CDE6CAD6BBFA3D25640D0A00DF
:104B2000BCB1CDA3BCB1D7DF3D256400B8000020E7
:104B3000BC000020FDA10268012001F04BF875E0E7
:104B40002A984078482870D12A9880784F286CD1CC
:104B50002A98C078572868D12A98001D2A902A9848
:104B60000078302861DB2A98007839285DDCC8217C
:104B70002BA8FDF73EFB2BA8299017E02A98007878
:104B800030280EDB2A98007839280ADC2A98017828
:104B9000299801702A98401C2A902998401C299035
:104BA00004E02BA8FDF7A8FB5E9000E0E6E700BF5D
:104BB000E648006838B9E5480368E5A101205E9A37
:104BC00001F008F831E0E1495E98096888420AD2AC
:104BD000DE4801685E98081A401EE44A129900FBFC
:104BE0000120139005E0E1481390D8480068401E6A
:104BF0005E90129880B20246119014A8139909F0A1
:104C0000F3FB442217A96846FDF7DAFA2BA814A98A
:104C10000EC911F0AFFA2BA80090CC4803685E9A39
:104C2000521CD3A1012000F0D5FF00BFDFE4D7A1C3
:104C30002898FDF7E9FAE8B3D4A12898FDF7E4FA3B
:104C40002A902A98801D2A902A9800783F2807D118
:104C5000D04B03F10902D0A1012000F0BBFFC6E454
:104C6000D6A1012000F0B6FF2A98407811902A982A
:104C700000781090119906F087FAC6490939C87072
:104C80002A98C07811902A9880781090119906F08F
:104C90007BFAC049093908712A98407911902A98FD
:104CA00000791090119906F06FFABA4909394871E4
:104CB0002A9800E02DE0C07911902A988079109010
:104CC000119906F061FAB349093988712A98407A36
:104CD00011902A98007A1090119906F055FAAD4972
:104CE0000939C87101F112000021016041600181A0
:104CF000093801604160017200F109020146801F1C
:104D000011F038F8A348093006F0BCFA09F02AFC83
:104D10006DE4ADA12898FDF777FA002870D0AAA11C
:104D20002898FDF771FA2A902A98C01D2A902A988F
:104D300000783F283CD12BA82990A5A1299810F0F4
:104D400019FB2998FDF772FA299908442990002047
:104D50005E9025E05E9800EB00118E481330405CB9
:104D600046281AD05E9800EB00118A481330405C48
:104D700098B15E9800EB0011864813300844034652
:104D800011905E9A521C95A1299810F0F3FA299877
:104D9000FDF74CFA2999084429905E98401C5E90D2
:104DA0005E980528D6D32BA9012000F013FF1EE43E
:104DB0002A98007830286BDB2A980078392867DC3D
:104DC0008AA1012000F006FF552172481330FDF73B
:104DD00010FA00205E90AFF670012A98FDF752FAA3
:104DE00029903CE05E9800EB00116A4813300844BB
:104DF000462210211190FDF7F5F900205D901DE08D
:104E000072E05D992998405C0D2808D05D99299839
:104E1000405C0A2803D05D992998405C00B910E0F5
:104E20005D992998415C5E9800EB00125948133057
:104E300002445D9811545D98401C5D905D98102867
:104E4000DFD300BF5E98401C5E905E98042800D9B6
:104E500008E0AFF6EC010020FDF714FA299029983C
:104E60000028BFD100BF0DE05E9800EB001149485B
:104E700013300844462210211190FDF7B3F95E98D3
:104E8000401C5E905E980528EED309F06BFB18E499
:104E90002A980078442813D12A98407849280FD1BD
:104EA0002A98807841280BD12A98C0784C2807D1BD
:104EB00051A1012000F08EFE0A20534908700AE437
:104EC0002A9800785328E2D12A9840784D28DED1DC
:104ED0002A9880785328DAD14CA1012000F07AFE7C
:104EE00001204E494870A1E64DA12898FDF78CF9A4
:104EF000D0B14BA12898FDF787F92A902A980C3059
:104F00002A902A9800783F280FD12BA8299048A1F1
:104F1000299810F02FFA2998FDF788F92999084463
:104F2000299000205E90AEE0FFE0B4E0CEA5D5C2AF
:104F3000D7DCCAFD3A25640D0ACEB4C9CFB4ABCED6
:104F4000A5D5C2CAFD3A256400000000B8000020C3
:104F500041542B464C4153483D53484F575B2564C1
:104F60002F25645D204F4B0D0A000000001030001B
:104F700041542B464C4153483D53484F575B2564A1
:104F80002F25645D204F4B0D0A25730041542B5390
:104F90004E3D000049220020B3B5C5C6BAC55B55D9
:104FA00054462D385D3A25730D0AB3B5C5C6BAC54A
:104FB0005B47424B5D3A25730000000041542B5380
:104FC0004E3D4F4B0000000041542B54454C3D00DA
:104FD000CAD6BBFABAC53A0D0A00000009CAD6BB48
:104FE000FA25643A25730D0A0000000041542B5441
:104FF000454C3D4F4B00000041542B54454C3D4423
:1050000049414C204F4B00004401002041542B5497
:10501000454C3D534D53204F4B0000004C14002095
:1050200041542B44524956455249443D000000002A
:10503000BCDDCABBD6A4BAC5C2EB3A0D0A0000005B
:105040005E98C0EBC00000EB4001F84808441190A6
:10505000FDF7ECF8A0B15E98C0EBC00000EB40019A
:10506000F2480844034611905E9A521CF0A1299818
:1050700010F080F92998FDF7D9F82999084429906A
:105080005E98401C5E905E980528D9D32BA901201C
:1050900000F0A0FDCAE5E9A1012000F09BFD692117
:1050A000E248FDF7A6F800205E90AFF644312A985A
:1050B000FDF7E8F8299031E000205D901DE05D9952
:1050C0002998405C0D2808D05D992998405C0A28F1
:1050D00003D05D992998405C00B911E05D99299849
:1050E000415C5E98C0EBC00000EB4002CF48024438
:1050F0005D9811545D98401C5D905D981428DED336
:1051000000BF5E98401C5E905E98042800D908E0BD
:10511000AFF6AC310020FDF7B5F8299029980028AA
:10512000CAD100BF09F01EFA80E5C8A12898FDF792
:105130006BF8E8B3C5A12898FDF766F82A902A987D
:1051400008302A902A9800783F2806D1B74A703252
:10515000C1A1012000F03EFD68E5C3A1012000F0DF
:1051600039FD1121B1487030FDF743F800205E9001
:1051700017E02A9800780D2806D02A9800780A2887
:1051800002D02A98007800B90EE02A980278A74841
:1051900070305E9942542A98401C2A905E98401CB8
:1051A0005E905E981028E4D300BF09F0DBF93DE57E
:1051B000FFE7B0A12898FDF727F8E8B3ADA128983C
:1051C000FDF722F82A902A980B302A902A98007826
:1051D0003F2809D19548713840780246A8A111901E
:1051E000012000F0F7FC21E5A9A1012000F0F2FC6C
:1051F000C8212BA8FCF7FDFF00205E9016E02A983E
:1052000000780D2806D02A9800780A2802D02A981B
:10521000007800B90DE02A9801782BAA5E98115405
:105220002A98401C2A905E98401C5E905E98032845
:10523000E5D300BF2BA800E00DE0FDF75DF85E9020
:105240005E98002888D05E98112885D277497139F8
:105250005E984870EAE492A12898FCF7D5FFE8B37D
:105260008FA12898FCF7D0FF2A902A980E302A9018
:105270002A9800783F2809D16C4871388078024616
:105280008BA11190012000F0A5FCCFE48DA101209D
:1052900000F0A0FCC8212BA8FCF7ABFF00205E901B
:1052A00016E02A9800780D2806D02A9800780A2857
:1052B00002D02A98007800B90DE02A9801782BAA2C
:1052C0005E9811542A98401C2A905E98401C5E906B
:1052D0005E980328E5D300BF2BA800E00DE0FDF7A2
:1052E0000BF85E905E980028B4D05E981128B1D279
:1052F0004E4971395E98887098E477A12898FCF738
:1053000083FF70B374A12898FCF77EFF2A902A9837
:10531000C01D2A902A98007830281CD0312821D02E
:105320003F2825D14148713890F83201012801D138
:105330006BA000E06CA011903C48713890F83201ED
:1053400000F001001090024669A10120119B00F0BD
:1053500041FCFEF76EBE00203449713981F83201FC
:1053600006E01CE001213148713880F8321100BF9D
:1053700000BF09F0F7F82D48713890F83201012884
:1053800001D157A000E058A011902A980078109001
:1053900002465BA10120119B00F01CFCD8E35DA13B
:1053A0002898FCF731FFE8B35AA12898FCF72CFFA6
:1053B0002A902A9808302A902A98007830281BD002
:1053C00031281FD03F2823D11848713890F8380170
:1053D000012801D152A000E054A011901348713867
:1053E00090F8380100F001001090024652A101200F
:1053F000119B00F0EFFBACE700200C49713981F8FC
:10540000380105E001200949713981F8380100BFF0
:1054100000BF09F0A7F82A98007802464CA1119025
:10542000012000E09CE000F0D5FB91E3B1220020D8
:10543000BCDDD6A425643A25730D0A0041542B44E3
:10544000524956455249443D4F4B000041542B416F
:105450005554483D00000000B5B1C7B0CADAC8A82D
:10546000C2EB3A257300000041542B415554483D8E
:105470004F4B000041542B434152545950453D007D
:1054800041542B434152545950453D25303264001C
:1054900041542B434152545950453D4F4B0000005D
:1054A00041542B445249564552545950453D0000F1
:1054B00041542B445249564552545950453D25308C
:1054C0003264000041542B445249564552545950BD
:1054D000453D4F4B0000000041542B53494D3D00CA
:1054E000B7C2D5E600000000CAB5B3B500000000A1
:1054F00041542B53494D3D25645B25735D000000ED
:1055000041542B53494D3D25635B25735D204F4B23
:105510000000000041542B5349474E3D000000005D
:10552000D3EFD2F4B2A5B1A800000000CEDED3EFD5
:10553000D2F4B1A80000000041542B5349474E3D1E
:1055400025645B2573D0C5BAC5C7BFB6C85D00006A
:1055500041542B5349474E3D2563204F4B000000DB
:10556000F7A12898FCF750FE88B3F5A12898FCF71E
:105570004BFE2A902A9808302A902A9800783028E2
:105580001BD031281ED0322822D03F2824D1EF480A
:1055900090F83301012801D1EDA000E0EEA01190B8
:1055A000EA4890F8330100F0010010900246ECA1A7
:1055B0000120119B00F00EFBCBE60020E34981F8AF
:1055C000330109E00120E14981F8330104E019E0E9
:1055D0000120E749C871BCE600BF08F0C3FFDB4803
:1055E00090F83301012801D1D9A000E0DAA0119090
:1055F0002A98007810900246DEA10120119B00F04D
:10560000E9FAA5E2E0A12898FCF7FEFD80B3DEA14F
:105610002898FCF7F9FD2A902A98C01D2A902A980C
:10562000007832282FD004DC302822D0312834D121
:1056300025E033282CD03F282FD1C44890F83A01D8
:1056400008B9D3A000E0D4A00090C948007B08B9F5
:10565000D4A000E0D4A01190C548007B00F0010068
:1056600010900246D1A10120119B00F0B3FA70E620
:105670002FE00020BE490873FF20887315E0FF204B
:10568000BB49087311E00020B04981F83A010CE0F1
:10569000FF20AE4981F83A0107E0B548007B18B910
:1056A000CC482A990EF0CFFD53E600BF08F05AFF10
:1056B000AF48007B08B9BBA000E0BBA011902A98BE
:1056C000007810900246C4A10120119B00F082FADC
:1056D0003EE2C8A12898FCF797FD98B3C5A1289889
:1056E000FCF792FD2A902A98C01D2A902A980078EB
:1056F0003F2814D004DC302807D0312847D10AE0F5
:10570000442820D0532842D131E0002098498873A2
:10571000FF20087343E0FF20954988733FE09448D9
:10572000807B08B99FA000E09FA011909048807BEB
:1057300000F0010010900246B0A10120119B00F082
:1057400049FA06E63FE02A98407849280ED12A987F
:10575000807841280AD12A98C0784C2806D1ADA17A
:10576000012000F037FA0A20AE490870F1E52A98C6
:1057700040784D280AD12A988078532806D1AAA1CA
:10578000012000F027FA0120AB494870E1E5784894
:10579000807B18B9A9482A990EF055FDD9E500BFBC
:1057A00008F0E0FE7248807B08B97EA000E07EA091
:1057B00011902A98007810900246A1A10120119B17
:1057C00000F008FAC4E1A4A12898FCF71DFDE8B395
:1057D000A1A12898FCF718FD2A902A9809302A9050
:1057E0002A980078302806D0312808D03F280AD0DF
:1057F000532803D11AE000205D4948735CE1FF2083
:105800005B49487358E15A48407B08B965A000E0FD
:1058100065A011905648407B00F0010010900246B0
:1058200090A10120119B00F0D5F992E52A984078CB
:1058300048287DD12A9880784F287FD12A98C0782F
:1058400057287BD18E484079012800E048E101D1FA
:105850008CA000E08DA08F494979012901D18EA14A
:1058600000E08FA1864A1279012A01D185A200E0C9
:1058700086A2884B1B79012B01D187A300E088A366
:10588000CDE90C32CDE90E107D48C078012801D158
:105890007CA100E07DA17F48C078012801D17EA2D3
:1058A00000E07FA276488078012801D175A000E051
:1058B00076A0784B9B78012B01D177A300E078A3E9
:1058C000CDE90830CDE90A216D484078012801D1A1
:1058D0006CA000E06DA06F494978012901D16EA14B
:1058E00000E06FA1664A1278012A01D165A200E0AA
:1058F00066A2684B1B78012B01D167A300E068A367
:10590000CDE90432CDE9061067480278674803788C
:105910006748C07866498978CDE90232CDE9001040
:10592000634840781190624800781090024600E089
:1059300004E060490120119B00F04CF909E50000EA
:1059400041542B4C414D503D0000000040220020AE
:10595000D6B1BDD300000000C4A3BFE90000000021
:1059600041542B4C414D503D25645B25735D000037
:105970009024002041542B4C414D503D25635B2524
:10598000735D204F4B00000041542B4932343D00E1
:105990005749464900000000426C7565546F6F74AA
:1059A00068000000BFAA0000B9D8000041542B498C
:1059B00032343D25645B493234313145CAE4B3F6B3
:1059C00025735D2C20496E7370656374696F6E3D3D
:1059D00025730000004C004041542B4932343D25D2
:1059E000635B493234313145CAE4B3F625735D2037
:1059F0004F4B000041542B4D33353D0041542B4D4E
:105A000033353D25645B4D3335CAE4B3F625735D0C
:105A10000000000041542B4D33353D4449414C209A
:105A20004F4B00004401002041542B4D33353D5372
:105A30004D53204F4B0000004C14002000500040FC
:105A400041542B4D33353D25635B4D3335CAE4B3AB
:105A5000F625735D204F4B0041542B5246343333AF
:105A60003D00000041542B52463433333D25645BE6
:105A70005246343333CAE4B3F625735D00000000A8
:105A8000DE000020D3D0D0A700000000CEDED0A7DB
:105A900000000000D8000020BDFBD6B900000000C7
:105AA000D4CAD0ED00000000E5000020E400002092
:105AB000D4000020446D010800BF2648407B10B987
:105AC000AFF2201001E0AFF2201011902A98007878
:105AD0001090024620A10120119B00F07BF837E0D6
:105AE00024A12898FCF790FB80B124A1012000F0AC
:105AF00071F820A12898FCF787FB2A902A98C01DEE
:105B00002A9021482A990EF09EFB21E01FA1289897
:105B1000FCF77AFB80B11FA1012000F05BF81BA10C
:105B20002898FCF771FB2A902A98C01D2A901C48DF
:105B30002A990EF088FB0BE01AA12898FCF764FB69
:105B400030B1FF200349087619A1012000F042F886
:105B500000BF50E49024002041542B52463433338C
:105B60003D25635B5246343333CAE4B3F625735D97
:105B7000204F4B0041542B4750533D0041542B477D
:105B800050533D4F4B0000000044004041542B58FF
:105B900046533D0041542B5846533D4F4B000000A7
:105BA0000038014041542B53545544590000000023
:105BB00041542B5354554459204F4B0038B504469B
:105BC000002000908DF800400121684610F0C6FDCD
:105BD00038BD00000FB42DE9F04F95B0804600208D
:105BE0001190129013901490402101A8FCF701FB32
:105BF000002720A80090944CFBE01F9800785C28B8
:105C00001AD11F98401C1F9000786E2808D0722867
:105C10000DD10D2004F8010B1F98401C1F900AE0C5
:105C20000A2004F8010B1F98401C1F9003E01F98E6
:105C3000401C1F9000BFDCE01F98007825287DD114
:105C40001F98401C1F90007864282FD006DC2E2857
:105C500054D0302873D0632872D104E0732816D052
:105C60007828F9D136E0009820C800902A4677A11C
:105C700001A80FF07FFB01A92046FCF7F9FA01A863
:105C8000FCF7D4FA04441F98401C1F90A9E0009828
:105C900040C8009031462046FCF7EAFA3046FCF74F
:105CA000C5FA04441F98401C1F909AE0009820C831
:105CB00000902A4666A101A80FF05CFB01A92046CE
:105CC000FCF7D6FA01A8FCF7B1FA04441F98401C6F
:105CD0001F9086E0009820C800902A465DA101A888
:105CE0000FF048FB01A92046FCF7C2FA01A8FCF717
:105CF0009DFA04441F98401C1F9072E00098C01D3C
:105D000020F007000090D0E90021DDF800C00CF180
:105D1000080C1046CDF800C0FCF7CEFD83462520C8
:105D20008DF844001F9800788DF845001F98401C9E
:105D30001F901F9800788DF8460002E052E020E0A6
:105D40004BE01F98401C1F901F9800788DF847006B
:105D500000208DF848005846FCF76BFD81464A4606
:105D60000B4611A901A80FF005FB01A92046FCF77D
:105D70007FFA01A8FCF75AFA04441F98401C1F90B0
:105D80002FE025208DF844001F9800788DF84500FD
:105D90001F98401C1F901F9800788DF846001F9890
:105DA000401C1F901F9800788DF8470000208DF848
:105DB0004800009820C800902A4611A901A80FF0B9
:105DC000D9FA01A92046FCF753FA01A8FCF72EFAEC
:105DD00004441F98401C1F9003E01F98401C1F9014
:105DE00000BF06E01F98007804F8010B1F98401CC4
:105DF0001F901F98007800287FF4FFAEB8F1010FC4
:105E000005D10D2004F8010B0A2004F8010B0E48FF
:105E1000251A064610E0402D01DD402000E028460E
:105E2000C7B23946304610F099FC3E44ED1B002DB8
:105E300002DD012000F010F8002DECDC15B0BDE80B
:105E4000F00F5DF814FB00006C1D002025630000BE
:105E5000256400002578000001B504490098086019
:105E600000BF024800680028FBD108BDD401002013
:105E700001B5002106E00A2100BF081EA1F10102C0
:105E800091B2FAD10098421E00920028F3D108BDC9
:105E900010B52D48007820B1012814D002284FD128
:105EA0003CE02A48807801280CD10020284908804D
:105EB0000120254908702748007A012802D126A12F
:105EC000FFF788FE3DE002F0CFFB05280EDB022045
:105ED0001D49087029A130200FF0BEF81D48007A36
:105EE00001281AD127A1FFF775FE16E01748C079DF
:105EF00098B91648807880B9002013490870B420FA
:105F00001349088024A130200FF0A6F81148007A28
:105F1000012802D122A1FFF75DFE12E000200C490A
:105F2000088002F0A1FB052809DA01200649087063
:105F30000848007A012802D107A1FFF74BFE00E0D4
:105F400000BF00BF10BD0000380100202F2D002031
:105F5000C801002090240020CCF8D7AAB5BD3AD7BC
:105F6000BCB1B8D0D0B3B5BBF2D5DFD7BCB1B8C0E7
:105F7000EBB3B5D7B4CCAC2E2E2E0000D0D0CABB1C
:105F800000000000CCF8D7AAB5BD3AD0D0CABBD724
:105F9000B4CCAC2E2E2E0000B2B4B3B5000000007D
:105FA000CCF8D7AAB5BD3AB2B4B3B5D7B4CCAC2E01
:105FB0002E2E00000EB56C48007820B101284ED07E
:105FC00002287CD158E069480078022805D00020DA
:105FD000674908706449087040E065480078012806
:105FE0003CD100206249087062A130200FF034F8E3
:105FF0006A48007A012802D15EA1FFF7EBFD6848EC
:106000000078401C66490870664800788DF80000EA
:10601000644840788DF80100624880788DF802006D
:1060200060488088ADF804005E4880798DF80600ED
:106030005C48C0798DF807005A48007A8DF808004E
:10604000594B9DE807000DF013FD5848006858496A
:10605000086045480078401C4349087082E0534876
:10606000006853490968401A0A2804D93E48007854
:10607000401C3D49087000BF4C4800684C49096805
:10608000401AB0F5967F03D838480078022805D02A
:106090000020374908703449087063E034480078BC
:1060A00001285DD100203249087042A130200EF055
:1060B000D3FF3A48007A012804D13EA100E050E025
:1060C000FFF788FD374800788DF8000035484078A4
:1060D0008DF80100334880788DF8020031488088BF
:1060E000ADF804002F4880798DF806002D48C0795E
:1060F0008DF807002B48007A8DF808002A4B9DE8A0
:1061000007000DF0B5FC274800788DF80000254801
:1061100040788DF80100234880788DF802002148EE
:106120008088ADF804001F4880798DF806001D486E
:10613000C0798DF807001B48007A8DF808001A4BCB
:106140000E339DE807000DF093FC0B2016490E3925
:1061500081F84D00084608F013FC00200249087041
:1061600000E000BF00BF0EBD680000203801002025
:106170003C000020C7EBC4FACDA3D6B9CEA5D5C24A
:10618000CAB9D3C3CAD6BBFA2CB7F1D4F2BDABB1EE
:10619000BBBCC7C2BCCEA5D5C20000009024002065
:1061A00069000020B02C00209A1B00203C01002038
:1061B00064000020C4FAD2F2CEA5D5C2CAB9D3C3B6
:1061C000CAD6BBFA2CD2D1B1BBBCC7C2BCCEA5D5F6
:1061D000C20000000EB5DB480078012813D1DA4870
:1061E000007834280FD1D94800780A280BDA0A2021
:1061F000D64908700120D349087000208880D4480F
:10620000B0F888014880D14800780C287BD2DFE8BC
:1062100000F006146D92BDFC7A7A7A7AFBFACD48CA
:106220008078012808D1CC480068CC490860C7486C
:106230000078401CC549087081E1C94810F0CAF8CF
:10624000012807D1C0480078332803D00A20BF496D
:1062500008704AE0BF48807820B9FDF721F8002097
:10626000BA490870BC480068BC490968401AB84976
:10627000B1F84411884238D3BAA130200EF0ECFEB8
:10628000B048007A012805D1B0480278BDA10120AC
:10629000FFF7A0FC0220C44981F84D00C3480078F4
:1062A0008DF80000C14840788DF80100BF48807823
:1062B0008DF80200BD488088ADF80400BB488079A5
:1062C0008DF80600B948C0798DF80700B748007A04
:1062D0008DF8080001F10E039DE807000DF0C8FBE2
:1062E0009A480078401C9949087028E19C4810F0B1
:1062F00071F8012808D194480078332804D00A2086
:106300009249087016E016E1A9480078022809D1E0
:1063100091480068914908608C480078401C8B497E
:10632000087007E08B48807820B9FCF7B9FF00209F
:106330008649087003E18A4810F04CF8012807D11B
:1063400081480078332803D00A20804908701CE077
:106350008148006881490968401A7D49B1F84411B3
:10636000884212D37FA130200EF076FE7548007A65
:10637000012805D17548027882A10120FFF72AFC87
:1063800072480078401C71490870D8E0744810F0D9
:1063900021F8012807D16C480078332803D00A205F
:1063A0006A49087052E082480078022846D16A485B
:1063B00000686A490968401A6549B1F8461188427F
:1063C00044D37CA130200EF047FE5E48007A0128BD
:1063D00002D178A1FFF7FEFB01207D4908705B48E0
:1063E0000078401C59490870704800788DF800000A
:1063F0006E4840788DF801006C4880788DF8020076
:106400006A48808802E086E05DE020E0ADF80400A4
:10641000664880798DF806006448C0798DF80700D9
:106420006248007A8DF808005F4B1C339DE8070036
:106430000DF01EFB5C4808F0A3FA07E045488078A1
:1064400020B9FCF72DFF00204049087077E0414853
:10645000807801282AD1404800685E490860404899
:106460000FF0B8FF012807D137480078332803D050
:106470000A203649087025E037480068374909681E
:10648000401A78281ED3344800683449086052A165
:1064900030200EF0E1FD2B48007A012812D12B4864
:1064A000027854A10120FFF795FB0BE02A48006811
:1064B00048490968401A082804D9FCF7F1FE002071
:1064C000224908703BE02348807801281FD1002032
:1064D0003F49087001201B4908701D49713120484F
:1064E00001F0C0FF1A4A81324AA131200EF0B4FDFA
:1064F0001448007A012804D1154A813245A1FFF7DA
:1065000069FB12480078401C1049087002E0002026
:106510000E49087013E02648007810B10948007849
:1065200040B90D4800680D490860FCF7B9FE00202D
:106530000649087003E000200449087000BF00BF4E
:106540000EBD000090240020000100203800002033
:10655000402200202F2D00203C010020540000206C
:10656000D01F0020C7EBC8B7C8CFBCDDCABBD4B1B1
:106570002CB7F1D4F2BCC7C2BCCEDED6A4BCDDCAF7
:10658000BB00000025643DC7EBC8B7C8CFBCDDCA5F
:10659000BBD4B12CB7F1D4F2BCC7C2BCCEDED6A4FA
:1065A000BCDDCABB000000003C1B0020B02C00205A
:1065B00038010020C4FAC9E6CFD3CEDED6A4BCDDB4
:1065C000CABB2CD2D1B1BBBCC7C2BCCEA5D5C20000
:1065D0003D00002058000020C7EBC8B7C8CFBCDD85
:1065E000CABBD4B12CCDA3D6B9CEDED6A4BCDDCAED
:1065F000BB00000025643DC7EBC8B7C8CFBCDDCAEF
:10660000BBD4B12CCDA3D6B9CEDED6A4BCDDCABBDB
:1066100000000000CEB2BAC5CEAA2573B5C4BCDD59
:10662000D5D5D2D1B5C7C2BCCEAABCDDCABBD4B108
:10663000000000007047000010B5012001F0AEFF1F
:106640000A4908600846008882B2D821084809F043
:10665000D1FC0648008881B20548FDF7D9FC4FF40B
:10666000405101200BF080FA10BD000048030020CB
:10667000F8540020014908607047000014040140EC
:10668000002123498279002A3AD00A461268036819
:106690009A430B461A600A1D126803689A430B1D41
:1066A0001A60027911440A6803681A430A60184A9A
:1066B0000832126803689A43154B08331A601A1D92
:1066C000126803689A43124B0C331A604279102AFD
:1066D0000ED11A1F126803681A430D4B08331A6053
:1066E0001A1D126803681A43094B0C331A600DE037
:1066F0000749427911440A6803681A430A6005E0B1
:10670000027911440A6803689A430A6070470000DE
:106710000004014030B5044604254FF4302000F059
:106720006FF80546042D17D10C48006940F00200AF
:106730000A49086108464461006940F04000086168
:106740004FF4302000F05CF805460448006941F63B
:10675000FD71084001490861284630BD0020024013
:1067600004200B49C96801F0010109B101200EE0C4
:106770000749C96801F0040109B1022007E0044992
:10678000C96801F0100109B1032000E0042070473E
:10679000002002400348006940F080000149086180
:1067A000704700000020024070B504460D460426E4
:1067B000F00200F025F80646042E11D109480069C0
:1067C00040F00100074908612580F00200F018F848
:1067D00006460448006941F6FE7108400149086117
:1067E000304670BD0020024002480349486003481B
:1067F000486070472301674500200240AB89EFCD18
:1068000000B502460423FFF7ABFF034603E0FFF7A2
:10681000A7FF0346521E012B01D1002AF7D102B96E
:106820000523184600BD00000EB56F480078052806
:1068300074D2DFE800F003426674BA006B48407817
:10684000012839D105F030FB022835D168A130206C
:106850000EF002FC7048007A012802D164A1FFF713
:10686000B9F903206D4981F84D006D4800788DF825
:1068700000006B4840788DF80100694880788DF8F9
:10688000020067488088ADF80400654880798DF87B
:1068900006006348C0798DF807006148007A8DF8DA
:1068A000080001F10E039DE807000DF0E1F84E48E5
:1068B0000078401C4C49087094E04C48407838B946
:1068C00005F0F2FA012803D100204749087089E059
:1068D00054480078012813D153A130200EF0BCFB9E
:1068E0004D48007A012802D14FA1FFF773F95548AE
:1068F0000068554908603C480078401C3A490870D7
:1069000070E05048006850490968401A0F2804D3C5
:1069100035480078401C3449087063E05EE0334835
:106920004078012803D105F0BFFA012803D10020E7
:106930002D49087056E03B480078012834D143A126
:1069400030200EF089FB3448007A012802D13FA1A3
:10695000FFF740F9324800788DF800003048407861
:106960008DF801002E4880788DF802002C48808830
:10697000ADF804002A4880798DF806002848C079CF
:106980008DF807002648007A8DF80800234B1C3349
:106990009DE807000DF06CF8204807F0F1FF124861
:1069A0000078401C104908701CE01E48007830B187
:1069B0000E484078012802D105F076FA68B90B48F4
:1069C0004078012802D105F06FFA18B90020064975
:1069D000087002E001200449087003E00020024929
:1069E000087000BF00BF0EBD44000020D80000208A
:1069F000C4FAD2D1BDF8C8EBBDFBD3C3D4B6B9E25B
:106A0000C7F8D3F22CC7EBB2BBD2AABFAAC6F4D444
:106A1000B6B9E2B5C6000000902400209C1A002000
:106A2000B02C00202F2D0020C7EBC4FAB9D8B1D567
:106A3000D4B6B9E2B5C62CB7F1D4F2BCC7C2BCCE4D
:106A4000A5D5C2003C01002048000020C4FAD2F2C3
:106A5000CEA5B9E6CAB9D3C3D4B6B9E2B5C62CD26D
:106A6000D1B1BBBCC7C2BCCEA5D5C2000EB57C4857
:106A7000007830B1012850D0022865D003287DD19C
:106A80009EE078480078012846D1774800780128B0
:106A900038D176A130200EF0DFFA7A48007A01284A
:106AA00002D172A1FFF796F80320774981F84D00D3
:106AB000764800788DF80000744840788DF8010021
:106AC000724880788DF8020070488088ADF8040024
:106AD0006E4880798DF806006C48C0798DF8070003
:106AE0006A48007A8DF8080001F10E039DE807005E
:106AF0000CF0BEFF664800686649086001205849EE
:106B0000087009E0002057490870032054490870B4
:106B10005F4800685F490860A0E05D4800685D4923
:106B20000968401A5C49B1F85A11884203D302201F
:106B30004B49087007E04C48007820B900204949CB
:106B400008704749087089E054A130200EF084FA9B
:106B50004C48007A012802D150A1FFF73BF80320EE
:106B6000494981F84D00494800788DF800004748B0
:106B700040788DF801004548807800E06DE08DF8A0
:106B8000020042488088ADF80400404880798DF8C2
:106B900006003E48C0798DF807003C48007A8DF821
:106BA000080001F11C039DE807000CF061FF364866
:106BB00007F0E6FE00202B490870294908704DE0D7
:106BC0003348006833490968401A3349B1F85A110B
:106BD000884205D3002023490870214908703BE012
:106BE00021480078012837D120A130200EF034FA56
:106BF0002448007A012802D11CA1FEF7EBFF0320F4
:106C0000214981F84D00214800788DF800001F4887
:106C100040788DF801001D4880788DF802001B48EF
:106C20008088ADF80400194880798DF8060017486F
:106C3000C0798DF807001548007A8DF8080001F139
:106C40000E039DE807000CF013FF1148006811497E
:106C5000086001200249087000E000BF00BF0EBDBF
:106C60004C0000203B0000202F2D0020B6D4CFF296
:106C7000C0B4B3B52CC7EBCAB9D3C3BDFCB9E2B538
:106C8000C600000090240020EC1A0020B02C002048
:106C90003C0100205000002040220020C4FAD2F223
:106CA000CEA5B9E6CAB9D3C3D4B6B9E2B5C62CD21B
:106CB000D1B1BBBCC7C2BCCEA5D5C2003EB5CB4886
:106CC00000780C287ED2DFE800F0064483BDCBDEDE
:106CD000F2F0EFEEEDECC6480078022838D1C54856
:106CE0000068C5490860C54800788DF80000C348B1
:106CF00040788DF80100C14880788DF80200BF48C7
:106D00008088ADF80400BD4880798DF80600BB4846
:106D1000C0798DF80700B948007A8DF80800B84BA3
:106D20009DE807000CF0A4FEB4480078072807DBB4
:106D3000B2480078132803DA0120B249087002E053
:106D40000220B0490870A9480078401CA749087083
:106D500049E1A7480078022809D0A6480068AA4956
:106D60000860A2480078401CA04908703BE1A54893
:106D70000078012814D19F4909689F4A1268881A2F
:106D8000FBF736FD04460022A04BFBF77DFD1ED825
:106D9000984800689E49086003209449087022E1E1
:106DA00094490968944A1268881AFBF721FD044641
:106DB0000022984BFBF768FD09D88E48006894497B
:106DC000086000E00EE10320884908700BE10AE149
:106DD00087480078022828D18648006886490860DC
:106DE000864800788DF80000844840788DF80100CE
:106DF000824880788DF8020080488088ADF80400D1
:106E00007E4880798DF806007C48C0798DF80700AF
:106E10007A48007A8DF80800794B9DE807000CF05D
:106E200027FE012071490870DDE07248006876494C
:106E30000968401AB0F5966F03D300206B490870BB
:106E4000D1E0D0E0744930200EF006F969480068BE
:106E50006F49086065480078401C64490870C2E0CA
:106E600063480078022800D0BDE0624800686849A5
:106E70000968401AB0F5617F04D35C480078401C73
:106E80005A490870AFE0654930200EF0E5F85948DE
:106E900000685F49086055480078401C53490870F5
:106EA000A1E068E05EE04EE02EE01FE0FFE7504822
:106EB0000078022800D096E04E4800684E490968E4
:106EC000401AB0F5615F03D90020484908708AE094
:106ED000484800684E490968401AB0F5167F04D347
:106EE00042480078401C414908707CE04C49302001
:106EF0000EF0B2F83F480068454908603B4800780A
:106F0000401C3A4908706EE039480078022800D0E9
:106F100069E03848006838490968401AB0F5615F8F
:106F200003D90020314908705DE0324800683849D3
:106F30000968401AB0F5617F04D32C480078401CE2
:106F40002A4908704FE037A130200EF085F8042060
:106F50002B490E3981F84D0024480078401C234904
:106F6000087040E02248007820B920480078401C92
:106F70001E49087037E01E48007810B10A201B49EE
:106F800008701C48006820490968401AB0F5966FDF
:106F900027D91A4800788DF80000184840788DF8F5
:106FA0000100164880788DF8020014488088ADF8FA
:106FB0000400124880798DF806001048C0798DF8D9
:106FC00007000E48007A8DF808000D4B9DE8070079
:106FD0000CF04EFD0A480E3807F0D2FC00200349A1
:106FE000087000E000BF00BF3EBD00006A00002046
:106FF000380100203C0100206C000020B02C002053
:10700000EA1B00207000002074000020009CC84093
:10701000780000200018B5407C6B0108146C010852
:10702000AC6C0108C4FAD2F2C6A3C0CDBCDDCABBA9
:10703000A3ACD2D1B1BBBCC7C2BCCEA5D5C20000E7
:107040002DE9FF4F83B081468A46164616B907B030
:10705000BDE8F08F0C2E00DDF9E7B9F8008099F853
:10706000024099F8035099F8047099F805B099F81E
:10707000060002900698002844D0B819182801D2BA
:10708000374480E0B819A0F11807012C09D0032C6F
:1070900007D0052C05D0072C03D0082C01D00A2CD2
:1070A00006D11F2D01D26D1C6DE00125641C6AE024
:1070B000042C05D0062C03D0092C01D00B2C06D1B2
:1070C0001E2D01D26D1C5EE00125641C5BE0022CCC
:1070D0000DD11D2D06D01C2D07D108F0FF0004F0A6
:1070E000F1FE10B90125641C4DE06D1C4BE00C2C29
:1070F00049D11F2D01D26D1C45E00125012408F165
:10710000010840E0B74201D3BF1B3CE007F1180083
:10711000871B022C09D0042C07D0062C05D0082C84
:1071200003D0092C01D00B2C06D1012D01D96D1EE5
:1071300029E01F25641E26E0052C05D0072C03D06E
:107140000A2C01D00C2C06D1012D01D96D1E1AE09C
:107150001E25641E17E0032C0BD1012D07D108F06A
:10716000FF0004F0AFFE10B91C25641E0BE06D1E7D
:1071700009E0012C07D1012D01D96D1E03E01F2567
:107180000C24A8F10108AAF800808AF802408AF8C5
:1071900003508AF804708AF805B002988AF806004D
:1071A0001248C07B00F00100F0B9B8F1000F1BD00D
:1071B000D4B1CDB1FF200D49C8734FF4616048824E
:1071C0000298C0B20BF0FF01FBB2EAB2CDE90010A9
:1071D000E1B21FFA88F009F035FC0448007A012872
:1071E00002D103A1FEF7F6FC00BF30E79024002097
:1071F000D6D5B6CBCDACB2BD475053CAB1BCE40076
:107200002DE9F0410246002500260020002300243D
:10721000002791F803C00CF00F0591F803C00CF0A3
:10722000100CBCF1000F03D091F802C04CEA050528
:1072300091F800C0BCF1000F31D0146800202BE0A1
:107240004FF0010C0CFA00F3B1F800C00CEA030691
:107250009E4220D183004FF00F0C0CFA03F7BC4381
:1072600005FA03FC4CEA040491F803C0BCF1280FB2
:1072700006D14FF0010C0CFA00FCC2F814C00AE071
:1072800091F803C0BCF1480F05D14FF0010C0CFA86
:1072900000FCC2F810C0401C0828D1D31460B1F81B
:1072A00000C0BCF1FF0F34DD546800202EE000F177
:1072B000080C4FF0010808FA0CF3B1F800C00CEA12
:1072C00003069E4221D183004FF00F0C0CFA03F706
:1072D000BC4305FA03FC4CEA040491F803C0BCF17A
:1072E000280F05D100F1080C08FA0CF8C2F8148038
:1072F00091F803C0BCF1480F07D100F1080C4FF022
:10730000010808FA0CF8C2F81080401C0828CED3F7
:107310005460BDE8F081000008B54FF48040ADF83E
:10732000000048208DF8030069463D48FFF768FFDC
:107330004FF40070ADF8000048208DF80300694656
:107340003848FFF75DFF4FF40040ADF800004820DB
:107350008DF8030069463248FFF752FF4FF4007082
:10736000ADF8000048208DF8030069462C48FFF76F
:1073700047FF4FF48070ADF8000048208DF80300FF
:1073800069462748FFF73CFF4FF40060ADF8000066
:1073900048208DF8030069462148FFF731FF4FF47C
:1073A0008050ADF8000048208DF8030069461C4865
:1073B000FFF726FF4FF40050ADF8000048208DF88D
:1073C000030069461648FFF71BFF4FF48060ADF8D5
:1073D000000048208DF8030069461148FFF710FFB0
:1073E0008020ADF8000048208DF8030069460C4865
:1073F000FFF706FF4FF48070ADF8000048208DF8CD
:10740000030069460748FFF7FBFE1020ADF80000B7
:1074100048208DF8030069460248FFF7F1FE08BDD9
:10742000001801400014014008B54FF40060ADF8A9
:10743000000010208DF8030003208DF8020069463B
:107440001448FFF7DDFE4FF48050ADF80000102027
:107450008DF8030069460F48FFF7D2FE4FF48060B5
:10746000ADF8000010208DF8030069460948FFF7C9
:10747000C7FE4FF40050ADF8000010208DF8030057
:1074800069460448FFF7BCFE4FF40051014800F084
:1074900054F808BD00140140F0B50A46002300244A
:1074A0000021002500F00046B6F1004F02D11D4E2C
:1074B000F16901E01B4E7168C0F3034583B200F42B
:1074C0004016B6F5401F08D121F07061154E766860
:1074D00026F07066134F7E6012E000F48016B6F559
:1074E000801F06D1032606FA05F4A14341F070611E
:1074F00006E0460D360103FA06F6B14341F070612D
:1075000022B1460D360103FA06F6314300F000467B
:10751000B6F1004F02D1034EF16101E0014E7160FE
:10752000F0BD0000000001400246002093680B40BF
:107530000BB1012000E000207047416170470161FC
:1075400070470AB1016100E04161704770B50446BF
:107550000D462946204608F01FF92946204607F027
:107560008DFE2946204607F03DFF2946204607F0BC
:107570006DFF2946204607F0C5FF2946204608F042
:10758000D3F870BD00B585B00121480408F004FFB0
:107590000121252008F020FF0220ADF80000102076
:1075A0008DF8030003208DF8020069461E48FFF79E
:1075B00027FE02211C48FFF7C2FF0420ADF800009F
:1075C00018208DF8030069461848FFF719FE0820B7
:1075D000ADF8000004208DF8030069461348FFF75A
:1075E0000FFE4FF4165001900020ADF80800ADF8E2
:1075F0000A00ADF80C00ADF810000C20ADF80E003C
:1076000001A90B480CF0C2FB012240F225510848A9
:107610000CF097FB012106480CF050FB4021044878
:107620000CF034FB05B000BD00140140000801401F
:10763000004400402DE9F043C5B04FF4807105A827
:10764000FAF7D7FDE1480078012871D10020DF4921
:1076500008700021DE480088401EDE4A11541146A1
:10766000DD48FFF773FF0020D94908804FF400710F
:10767000D848FAF7BEFDD84890F88B00012804D00E
:10768000D54890F88B00022871D101230822D349F4
:10769000D1487A30FFF7D4FC0FF012F800F0E4FF85
:1076A000052874DBCC48D0F8A600642190FBF1F5E6
:1076B0002846FBF77EF80446C9492046FBF722F925
:1076C00004D9C8492046FBF713F904D80320C2495E
:1076D00081F8AA006AE0C4492046FBF713F909D8EB
:1076E000C2492046FBF704F904D80620BA4981F8BC
:1076F000AA005BE0BE492046FBF704F909D8BD4962
:107700002046FBF7F5F804D80020B34981F8AA0019
:107710004CE0B9492046FBF7F5F80AD8B7492046AE
:10772000FBF7E6F805D80420AB4981F8AA003DE054
:1077300049E1B3492046FBF7E5F809D8B1492046AD
:10774000FBF7D6F804D80120A34981F8AA002DE060
:10775000AD492046FBF7D6F80AD8AC492046FBF7DE
:10776000C7F805D805209C4981F8AA001EE0BEE0B4
:10777000A7492046FBF7C6F80AD8A6492046FBF7DA
:10778000B7F805D80220944981F8AA000EE029E054
:10779000A1492046FBF7B6F808D8A0492046FBF7D8
:1077A000A7F803D807208C4981F8AA008A4890F8E6
:1077B000AA009B490978884214D0874890F8AA000B
:1077C000974908709748007A01280BD1824890F8B1
:1077D000AA0000EB4000944901EB400293A1012074
:1077E000FEF7F8F99348006893490968401A05289C
:1077F0007DD39048006891490968401A1E2876D9BF
:107800008C4800688C4908600DF11409734881792F
:107810004079724A1279714BDB78CDE90032CDE9BB
:1078200002016E488378028885A148460DF0A2FDCA
:1078300005A8FAF7FBFC05A900EB010900F014FF0D
:1078400005462A4688A148460DF094FD05A8FAF79A
:10785000EDFC05A900EB01095F49D1F88600FAF7B4
:10786000C7FF07460022824BFAF734FF05462A4637
:107870000B4680A148460DF07DFD05A8FAF7D6FC21
:1078800005A900EB01095449D1F88100FAF7B0FFCE
:1078900007460022764BFAF71DFF05462A460B469F
:1078A00077A148460DF066FD05A8FAF7BFFC05A9CB
:1078B00000EB01094849D1F8A000FAF77AFF8046A9
:1078C0007249FAF7B0FD0546FAF7B3FF06463246AD
:1078D0000B466FA148460DF04DFD05A8FAF7A6FC32
:1078E00005A900EB01093C4890F88C2000E033E04A
:1078F0006BA148460DF03EFD05A8FAF797FC05A9D7
:1079000000EB010934480078642190FBF1F201FB9F
:1079100012052A4666A148460DF02CFD05A8FAF787
:1079200085FC05A900EB01092B484078642190FBF8
:10793000F1F201FB12052A4661A148460DF01AFD3D
:1079400005A8FAF773FC05A900EB01093548007A90
:10795000012801D1FEF73EF936480068364909682A
:10796000401A05282FD33348006834490968401A63
:107970001E2828D92F4800682F490860164890F81B
:107980008B0068B952480078E8B12648007A01288F
:1079900002D150A1FEF71EF900204D49087012E0F7
:1079A0000D4890F88B0006280DD14948007806282C
:1079B00009D01C48007A012802D148A1FEF70AF933
:1079C00006204349087045B0BDE8F083130200204B
:1079D000140200207E2E0020D32D0020DC01002088
:1079E0000000A9430000B0410000B84100008642F9
:1079F000000088420000F2420000F44200001D43F3
:107A000000001E4300004A4300004B430000774340
:107A10000000784300009243008092430080A84316
:107A20002902002090240020E3010020BABDCFF2FB
:107A3000257300003C0100202402002034010020B6
:107A4000CAB1BCE43A253034642D253032642D258A
:107A500030326420253032643A253032643A2530A1
:107A600032640D0A00000000CBD9B6C825642C0092
:107A7000006AF84028BEADB6C83A252E37662C00FD
:107A8000CEB3B6C83A252E3766292C000000204117
:107A9000B8DFB6C83A252E31666D0D0A0000000029
:107AA000B6A8CEBBD0C7CAFD3A253032642C000040
:107AB00047505320D0C7CAFD3A253032642C00000D
:107AC000B1B1B6B7D0C7CAFD3A2530326400000064
:107AD00028020020CEB4B6A8CEBB0000D5FDD4DA73
