:020000040800F2
:10000000200C002009010008050200080702000872
:100010000B0200080F020008130200080000000095
:1000200000000000000000000000000017020008AF
:1000300019020008000000001B020008E701000888
:100040002301000823010008230100082301000800
:1000500023010008230100082301000823010008F0
:1000600023010008230100082301000823010008E0
:1000700023010008230100082301000823010008D0
:1000800023010008230100082301000823010008C0
:1000900023010008230100082301000823010008B0
:1000A00023010008230100082301000823010008A0
:1000B0002301000823010008230100082301000890
:1000C0002301000823010008230100082301000880
:1000D0002301000823010008230100082301000870
:1000E000230100082301000823010008DFF80CD0D9
:1000F00000F096FD0048004757010008200C002042
:1001000080F308887047000006488047064800478B
:10011000FEE7FEE7FEE7FEE7FEE7FEE7FEE7FEE7B7
:10012000FEE7FEE71F0B0008ED00000870B504466F
:1001300020682D4900EA010520680840B0F1005F01
:1001400008D16068294908602068FFF7D9FF27486F
:100150000068804770BD2DE9F041254DDFF894809F
:10016000254E2F4603222549404600F072F82348C9
:100170000088012826D100F0A4F9002410E04FF4F3
:1001800000721F49304600F064F84FF400721C49B9
:10019000384600F06FF806F5806607F58067641C46
:1001A00016484088A042EAD80020144908804880B8
:1001B000404600F0CBF903221049404600F02EF8EB
:1001C00000F08BF94FF40051880300F024F96868BF
:1001D000064908602868FFF793FF044800688047D5
:1001E0000020BDE8F08170470000FE2F08000020CD
:1001F00000200008001F0008002002080000002066
:1002000020040020704700BFFEE700BFFEE700BFEC
:10021000FEE700BFFEE77047704770472DE9F041E9
:1002200005460E46174605F0010008B1BDE8F0810D
:10023000002407E036F81410284600F08AFAAD1CB6
:10024000601C84B2BC42F5DB00BFEFE701460888C2
:10025000704730B503460C461546002207E01846A5
:10026000FFF7F4FF24F812009B1C501C82B2AA4234
:10027000F5DB30BD2DE9F05F07468A461646B7F13B
:10028000006F05D34548874202D207F0010008B14C
:10029000BDE8F09FA7F1006B4FEA9B28CBF348091C
:1002A000C9F50074A64200DC344649E04FF4007200
:1002B0003B493846FFF7CDFF00250BE009EB050071
:1002C000374931F810004FF6FF71884200D003E043
:1002D000681C85B2A542F1DB00BFA54218DA38469A
:1002E00000F034F9002508E03AF8150005EB0901A3
:1002F0002B4A22F81100681C85B2A542F4DB4FF0AE
:10030000006101EB88208A142549FFF787FF04E08C
:10031000224651463846FFF781FFA64200D110E041
:1003200008F101084FF000090AEB440A2744301B8A
:1003300086B2B6F5007F02DD4FF4007400E034466B
:10034000B4E700BF00BFA3E72DE9F05F05460E4606
:1003500017464FF0000BAA463446D84612E06078A4
:100360004FEA0029207848441FFA80F9A41C584617
:10037000411C1FFA81FB0B4921F8109008F1020083
:100380001FFA80F8B845EADB4FF400720549504681
:10039000FFF770FF0AF5806ABDE8F09F00000408CF
:1003A000200000202004002031490143314A11601F
:1003B000704770B5002100230F22C47804B32D4C80
:1003C000246804F4E064C4F5E064210AC1F1040384
:1003D000CA40447804FA03F18478144021430901A7
:1003E000254C0678A155047804F01F050124AC4083
:1003F00005786D11AD0005F1E025C5F8004109E073
:10040000047804F01F050124AC401C4D06787611D9
:1004100045F8264070BD1A4A0A400243154B1B1F7F
:100420001A60704739B1134A121D12680243114B0A
:100430001B1D1A6006E00F4A121D126882430D4B05
:100440001B1D1A607047042808D14FF0E02109698C
:1004500041F004014FF0E022116107E04FF0E0218C
:10046000096921F004014FF0E0221161704700009A
:100470000000FA050CED00E000E400E080E100E09F
:1004800080FFFF1F01460020FE4A106800F0380080
:10049000084310607047FB49096821F00801F94AD8
:1004A000116011460968014311607047F5490968F8
:1004B00021F01001F34A11601146096801431160EF
:1004C0007047F148EF494860F04848607047EE488F
:1004D000EC494860ED4848607047EA48006940F0E0
:1004E0008000E84908617047E648006940F08000F4
:1004F000E449086170470420E249C96801F001013C
:1005000009B101200EE0DF49C96801F0040109B119
:10051000022007E0DB49C96801F0100109B103209E
:1005200000E00420704700B502460423FFF7E3FF14
:10053000034603E0FFF7DFFF0346521E012B01D104
:10054000002AF7D102B90523184600BD30B504468C
:1005500004254FF43020FFF7E6FF0546042D17D1A0
:10056000C848006940F00200C64908610846446175
:10057000006940F0400008614FF43020FFF7D3FFDE
:100580000546C048006941F6FD710840BD49086153
:10059000284630BD10B504244FF43020FFF7C3FFC8
:1005A0000446042C16D1B748006940F00400B54950
:1005B00008610846006940F0400008614FF43020AF
:1005C000FFF7B1FF0446AF48006941F6FB710840F0
:1005D000AC490861204610BD00B502460423FFF770
:1005E0008AFF034603E0FFF786FF0346521E012BF6
:1005F00001D1002AF7D102B90523184600BD10B574
:1006000004244FF43020FFF7E7FF0446042C16D1F2
:100610009C48006940F004009A4908610846006956
:1006200040F0400008614FF43020FFF7D5FF04464A
:100630009448006941F6FB710840924908612046E0
:1006400010BD00208F49C96901F0020109B10120E4
:1006500000E00020704730B5A5250424FFF7F1FF26
:1006600000B100254FF43020FFF75DFF0446042C55
:100670003AD1854883498860844888600846006983
:1006800040F0200008610846006940F04000086121
:100690004FF43020FFF747FF0446042C1BD1794864
:1006A000006941F6DF710840764908610846006933
:1006B00040F01000086176480580E002FFF733FF44
:1006C0000446052C10D06F48006941F6EF710840D0
:1006D0006C49086108E0052C06D06A48006941F6BB
:1006E000EF71084067490861204630BD78B506467D
:1006F0000C46042500200090E802FFF714FF054691
:10070000042D24D15F48006940F001005D49086173
:100710003480E802FFF707FF0546042D10D1B01C16
:100720000090200C00990880E802FFF7FCFE0546C7
:100730005448006941F6FE7108405249086106E0DC
:100740005048006941F6FE7108404E49086128464C
:1007500078BD70B504460D460426F002FFF7E3FEAF
:100760000646042E11D14748006940F00100454972
:1007700008612580F002FFF7D6FE06464148006971
:1007800041F6FE7108403F490861304670BD70B5C2
:1007900005460E460424E002FFF7C5FE0446042C7D
:1007A00017D1394837498860384888600846006959
:1007B00040F0100008612E80E002FFF7B4FE04460E
:1007C000052C06D02F48006941F6EF7108402D49ED
:1007D0000861204670BD2DE9F04304464FF6FF76D0
:1007E0003746B046B1460425E443E6B2C4F30727D2
:1007F000C4F307484FEA1469E802FFF794FE054680
:10080000042D49D120481F49886020488860084647
:10081000006940F010000861FF2E06D01C48083027
:100820000680E802FFF77FFE0546042D08D1FF2F62
:1008300006D017480A300780E802FFF774FE054625
:10084000042D0AD1B8F1FF0F07D011480C30A0F8E1
:100850000080E802FFF767FE0546042D0AD1B9F1D2
:10086000FF0F07D00A480E30A0F80090E802FFF70B
:100870005AFE0546052D0FD00248006941F6EF717A
:10088000084007E00020024023016745AB89EFCD17
:1008900000F8FF1F664908612846BDE8F08330B5BF
:1008A000054604244FF43020FFF73DFE0446042C97
:1008B00041D160485E4988605F48886008460069A9
:1008C00040F0200008610846006940F040000861DF
:1008D0004FF43020FFF727FE0446042C22D1544861
:1008E000006941F6DF710840514908610846006916
:1008F00040F0100008611DB100205049088002E05E
:10090000A5204E4908804FF43020FFF70CFE044626
:10091000052C10D04648006941F6EF710840444963
:10092000086108E0052C06D04148006941F6DF71F6
:1009300008403F490861204630BDF0B505460E46E7
:10094000174604243B483A4988603B488860E002E7
:10095000FFF7E9FD0446042C19D13548006940F041
:1009600010003349086147F0F80030432843334909
:10097000891C0880E002FFF7D6FD0446052C06D04E
:100980002B48006941F6EF7108402949086120466B
:10099000F0BD2748C069800870472548006A704745
:1009A00000202349096801F0200109B1012000E07D
:1009B0000020704729B11E4A126902431C4B1A617C
:1009C00004E01B4A12698243194B1A6170470146C1
:1009D0000020012908D1164AD26902F001020AB1A9
:1009E000012008E0002006E0114AD2680A400AB15E
:1009F000012000E0002070470D49C86070470420C6
:100A00000B49C96801F0010109B101200EE0084954
:100A1000C96801F0040109B1022007E00449C9686E
:100A200001F0100109B1032000E00420704700002C
:100A30000020024023016745AB89EFCD00F8FF1F7E
:100A40000CB50020019000906C48006840F48030A4
:100A50006A49086000BF6948006800F400300090EF
:100A60000198401C0190009818B90198B0F5A06F4A
:100A7000F1D16248006800F4003010B1012000900C
:100A800001E0002000900098012843D15C480068F4
:100A900040F010005A4908600846006820F0030042
:100AA00008600846006840F002000860534840684B
:100AB000524948600846406848600846406840F42B
:100AC000806048600846406820F47C104860084612
:100AD000406840F4E81048600846006840F08070C4
:100AE000086000BF4548006800F000700028F9D099
:100AF0004248406820F0030040494860084640688A
:100B000040F00200486000BF3C48406800F00C0024
:100B10000828F9D10CBD10B5FFF792FF10BD10B534
:100B20003648006840F001003449086008464068D3
:100B30003449084031494860084600683249084055
:100B40002E4908600846006820F4802008600846A6
:100B5000406820F4FE0048604FF41F008860FFF7F3
:100B6000DAFF4FF000602949086010BD10B5002180
:100B700000200022214B5B6803F00C0121B1042905
:100B800006D0082928D107E0214B224C236027E01A
:100B90001F4B204C236023E0184B5B6803F470105C
:100BA000164B5B6803F48032022303EB904022B9BA
:100BB000194B4343174C23600DE0104B5B6803F463
:100BC000003323B1144B4343124C236003E0104B1A
:100BD0004343104C236003E00D4B0E4C236000BFD9
:100BE00000BF064B5B68C3F303130C4CE15C094B7D
:100BF0001B68CB40074C236010BD00000010024072
:100C0000002002400000FFF8FFFFF6FE08ED00E0C4
:100C100000127A000C00002000093D0010000020A6
:100C2000064C074D06E0E06840F0010394E8070039
:100C300098471034AC42F6D3FFF75CFA640C000816
:100C4000840C000802E008C8121F08C1002AFAD16B
:100C500070477047002001E001C1121F002AFBD13C
:100C600070470000840C00080000002020000000F5
:100C7000440C0008A40C000820000020000C000018
:100C8000540C0008000000000000000000000000FC
:100C900000A24A040000000000000000010203045A
:040CA0000607080932
:04000005080000ED02
:00000001FF
